:020000040800F2
:1000000000000220D98E02087D3301087F330108E9
:1000100081330108833301088533010800000000A3
:1000200000000000000000000000000031A80108EE
:100030008733010800000000D1A801080BA20108C5
:10004000298F0208298F0208298F0208298F0208A8
:10005000298F0208298F0208298F0208298F020898
:10006000298F0208298F0208298F02088933010885
:10007000298F020899330108298F0208A933010842
:10008000298F0208B9330108C9330108D93301089F
:10009000E93301080D3401081D340108298F0208D5
:1000A000298F02082D3401083D340108298F0208E8
:1000B0004D3401085D340108298F0208298F020898
:1000C000298F0208298F0208298F0208298F020828
:1000D000298F0208298F0208298F0208298F020818
:1000E000298F0208298F0208298F0208298F020808
:1000F0006D3401087D340108298F02088D34010810
:10010000298F0208298F0208298F02089D340108CF
:10011000AD340108BD340108CD340108DD340108D7
:10012000ED340108298F0208298F0208298F02085F
:10013000298F02080000000000000000FD340108C3
:100140000D3501081D3501082D3501083D35010823
:10015000298F0208298F0208298F0208298F020897
:10016000298F0208298F0208298F0208298F020887
:10017000298F0208298F02080000000000000000FB
:08018000298F0208298F0208F3
:1001C0000348044B834202D0034B03B118477047E6
:1001D000F00B0020F00B002000000000054806494D
:1001E0000B1AD90F01EBA301491002D0034B03B145
:1001F00018477047F00B0020F00B002000000000B3
:1002000010B5064C237843B9FFF7DAFF044B13B15E
:100210000448AFF300800123237010BDF00B0020D1
:1002200000000000ACAA020808B5044B1BB1044949
:100230000448AFF30080BDE80840CFE700000000AD
:10024000F40B0020ACAA020853EC102BC3F30A5C99
:10025000ACF2FF31132910B510EE100A9E4622DCD5
:10026000002909DB1F4C44FA01FC03EA0C0420437B
:1002700010D143EC102B10BD03F0004E013104BF30
:100280004EF07F5E4EF4401E00207346024643EC63
:10029000102B10BD4FF4002343FA01F18E442EEAD7
:1002A0000C0E0020F1E7332908DDB1F5806FE0D1B5
:1002B000194601F07BF941EC100B10BDACF2134C68
:1002C0004FF0FF3424FA0CFC12EA0C0FD1D00123BA
:1002D000C1F1330103FA01F1401828BF9E4420EA1E
:1002E0000C00D2E7FFFF0F0038B510EE105A25F0D2
:1002F0000044B4F1A14FF0EE407A0BDBB4F1FF4FB4
:1003000058DCDFED517A9FED510A002DC8BFB0EEE9
:10031000670A38BD4E4B9C425BDCB4F1445F4CDB5A
:100320004FF0FF3267EEA76ADFED4A4ADFED4A5A27
:100330009FED4A5A9FED4A4A26EEA67AB0EE666ACB
:10034000E7EE245A531CDFED474ADFED476AA5EE7E
:10035000875AE7EE246ADFED455ADFED454AE6EEBF
:10036000875AA5EE074A9FED435ADFED436AA5EE93
:10037000875AE4EE074ADFED415AE4EE876AE5EE7C
:10038000075A66EE866A25EE877A37D03C4B03EB38
:10039000820376EE876A93ED000A93ED047A96EE77
:1003A000A70A002D70EE677A37EE670AB1DAB1EE70
:1003B000400A38BD30EE000A38BD9FED327A30EE8B
:1003C000077AF7EE006AB4EEE67AF1EE10FAA7DDEE
:1003D00038BD00F05DF82C4B9C4216DCA3F5D00331
:1003E0009C4227DCF0EE007ABFEE007AA0EE277A7E
:1003F000002230EE270AC7EE007A93E776EE876A8E
:10040000E6EEE77AB0EE670A38BD204B9C420BDC83
:10041000F7EE087AB7EE007AA0EE277A022230EEE5
:10042000670AC0EE077A7DE7BFEE007AC7EE007A72
:10043000032277E7F7EE007A30EE677A30EE270A8C
:100440000122C7EE007A6DE7DB0FC93FDB0FC9BFA2
:10045000FFFFDF3ED769853C59DA4B3D356B883D60
:100460006E2EBA3D21A215BD6BF16EBD95879DBD67
:100470002549123E388EE3BDABAAAA3ECDCC4CBE78
:1004800058AB0208CAF24971FFFF973FFFFF1B40BC
:1004900010EE103A23F0004300EE103A704700BF10
:1004A00010EE103AC3F3C7527F3A162A10EE101A14
:1004B00015DC002A0CDB0C481041034205D04FF438
:1004C000800313410B4423EA000300EE103A704707
:1004D000013203F00043F8D143F07E53F5E7802A60
:1004E000F3D130EE000A7047FFFF7F0010EE103AA4
:1004F000194A23F0004393421CDDB3F1FF4F02DBA6
:1005000030EE400A704700B583B0684600F050FAFC
:1005100000F003000128DDED010A9DED000A0ED078
:10052000022813D070B100F079FBB1EE400A03B09D
:100530005DF804FBDFED090A002000F02BBF00F09E
:100540006DFBF4E7012000F025FFF0E7012000F04B
:1005500021FFB1EE400AEAE7D80F493F0000000052
:1005600008B52DED028BB0EE408A00F057F8144B21
:1005700093F900300133F0EE408A0FD0B4EE488A90
:10058000F1EE10FA0AD6B0EE480AFFF781FFF7EE57
:10059000007AB4EEE70AF1EE10FA04DCB0EE680A75
:1005A000BDEC028B08BD02F0FFFDBDEC028B0346E3
:1005B00021221A600348BDE8084000F079BF00BF5F
:1005C0000400002078C6020800F04CB908B52DEDF3
:1005D000028BB0EE408A00F01DFB0E4B93F9003009
:1005E00001330BD0B4EE488AF1EE10FA06D6DFEDF7
:1005F0000A8AB4EEE88AF1EE10FA02D4BDEC028B5E
:1006000008BD02F0D1FD88EEA80ABDEC028B2123C3
:10061000036008BD040000200000000008B510EED3
:10062000102A22F00043B3F17E5F2DED028B12D031
:100630000ADCB3F17C5F19DAB3F10C5F6CDCBDEC62
:10064000028B9FED770A08BD70EE407A87EEA70A0D
:10065000BDEC028B08BDBDEC028B9FED720ADFED95
:10066000727A002AD8BFB0EE670A08BD002AC0F22D
:100670009080F7EE008A38EEC00AB6EE008A20EECF
:10068000088AB0EE480A00F0C5FADFED687A9FEDFF
:10069000687A9FED686ADFED685ADFED686AA8EE58
:1006A000277ADFED677AA7EE086AE8EE257AE6EEAC
:1006B000086ADFED645A9FED647AE7EE885AA6EE89
:1006C000887ADFED627A10EE103AE5EE887A23F44C
:1006D0007F6323F00F03B0EE476A9FED5D7AF0EE83
:1006E000676AA6EE087A07EE903AB0EE486AE6EE40
:1006F000888AA7EEE76A70EE276A27EE088A86EEF8
:10070000267AC8EE286ABDEC028BA0EE267A37EE78
:10071000870A30EE000A08BD20EE007ADFED437A4A
:100720009FED436ADFED436A9FED435ADFED435A85
:10073000A7EE276ABDEC028BE6EE076ADFED407A92
:100740009FED406AE7EE057AE6EE875AA7EE876AE4
:100750009FED3D5ADFED3D7ADFED3D6AA5EE875A0C
:10076000E6EE077AE5EE076AF7EE005AE7EE875AFB
:1007700026EE877A9FED376ADFED377AC7EE256A76
:10078000B0EE467AA0EE667A30EE470A37EEC00A3F
:1007900008BDB7EE007A30EE070AF6EE007A60EE9A
:1007A000277ADFED226A9FED226ADFED224ADFED34
:1007B000225A9FED225A9FED268AA7EEA66ADFED08
:1007C000206AE6EE274AE7EEA56ADFED1E5A9FEDA6
:1007D0001E6AA4EEA75AE6EEA75ADFED1C6AA5EE44
:1007E000276AE5EEA76AA6EE278AA6EEA77A28EE84
:1007F000278AF0EE478AB0EE670A00F00BFA88EE1F
:10080000286ADFED167AB0EE407AE7EE067A9FEDC1
:10081000140A77EE877AF0EE006AA7EEE60A17E789
:10082000DB0FC93F00000000DB0F494008EF113823
:10083000047F4F3A461124BD2EC69D3DA80A4E3E68
:10084000613330BF2D57014090B0A6BE39D119C0D9
:10085000ABAA2A3E6821A233DA0FC93F6821A2B3AE
:10086000DA0F494010B582B0CDED010A019B23F0AB
:100870000042B2F1FF4FF0EE407A30DC10EE100A89
:1008800020F00041B1F1FF4F29DCB3F17E5F42D08F
:100890009C1704F0020444EAD07431B37AB3B2F185
:1008A000FF4F40D0B1F1FF4F29D08A1AB2F1F45F67
:1008B0004FEAE25134DA002B42DA3C3140DA9FED64
:1008C000340A012C4ED0022C43D064B19FED317A12
:1008D000DFED317A30EE070A30EE670A03E09DED76
:1008E000017A37EE270A02B010BD022C10D09FED1E
:1008F0002B0A032C18BFB0EE670A02B010BD9FEDA3
:10090000280ADFED287A0028B8BFB0EE670AEAE7C8
:100910009FED210AE7E702B0BDE81040FFF7E4BC15
:100920009FED1F0ACDE7B1F1FF4F04F1FF3420D056
:10093000022C26D81C4B03EB840494ED030AD2E767
:100940009DED017A87EE870AFFF7A2FDFFF7CCFC49
:10095000B7E79FED107ADFED107A30EE070A37EE39
:10096000C00AC0E710EE103A03F1004300EE103A5F
:10097000B9E7022C08D80C4B03EB840494ED000A71
:10098000B1E79FED030AAEE79FED080AABE700BFB2
:10099000000000002EBDBB33DB0F4940DB0F49C018
:1009A000DB0FC93FDB0FC9BF78AB0208DB0F493F44
:1009B00070B510EE103A894A23F00044944286B094
:1009C000054670DD864A944210EE106A22DC002B48
:1009D000DFED847A844A24F00F04B0EE407A40F3CD
:1009E000E480944270EE677A09BFDFED806A9FED84
:1009F000807A9FED807A77EEE67A012077EEC76AFB
:100A000077EEE67AC5ED006A77EEC77AC5ED017A32
:100A100006B070BD784A944254DDB4F1FF4F49DA14
:100A2000E215863AA4EBC25307EE903ABDEEE77AA0
:100A3000DFED726AB8EEC77A77EEC77A8DED037A8A
:100A400067EEA67ABDEEE77AB8EEC77A77EEC77A98
:100A50008DED047A67EEA67AF5EE407AF1EE10FAA3
:100A6000CDED057A40F09080B5EE407AF1EE10FAC7
:100A700014BF02230123624901910221009103A8BE
:100A8000294600F04DF9002EC2DA95ED007AD5ED39
:100A9000017AB1EE477AF1EE677A85ED007AC5ED1D
:100AA000017A4042B4E7002285ED000A426000204E
:100AB00006B070BD70EE407A0020C5ED017AC5ED3C
:100AC000007AA5E7FFF7E4FC9FED4E7A9FED456ABB
:100AD000F6EE007AE0EE077A9FED457AFDEEE77AD2
:100AE00017EE900AF8EEE76A1F28A6EEC60A66EE31
:100AF000877AB1EE666A1EDC434A411E24F0FF038A
:100B000052F82120934216D030EE677A85ED007AB4
:100B100030EE470A002E30EE670A85ED010ABFF677
:100B200077AFB1EE477AB1EE400A85ED007A85EDF8
:100B3000010A40426CE730EE677AE21517EE103A90
:100B4000C3F3C753C3EBD454082CDFDDDFED277AA2
:100B50009FED287AF0EE405AE6EE275A30EE650A0D
:100B6000A6EE270AF0EE407AD6EE877A35EEE77ADF
:100B700017EE103AC3F3C753D21A192A06DCB0EEA7
:100B8000650A85ED007AC3E7032374E79FED1F7ABA
:100B90009FED1F5AB0EE650AA6EE070A75EEC07A01
:100BA000E6EE077AD6EE857AAEE7944270EE277AC3
:100BB00009BFDFED0E6A9FED0E7A9FED0E7A77EE9C
:100BC000A67A4FF0FF3077EE876A77EEE67AC5EDCA
:100BD000006A77EE877AC5ED017A19E7D80F493FA9
:100BE000E3CB1640800FC93FD00FC93F00443537D3
:100BF0004344353708A3852E800F494300008043C6
:100C000010AC020884F9223F90AB020800A3852EA5
:100C100032318D24B1EEC00A704700BF10EE103A99
:100C200023F00043B3F1485F2CDAFDEEC07A17EEF3
:100C3000903A002B60D020EE007ADFED317A9FED04
:100C4000315ADFED315A9FED316ADFED316AA7EE9F
:100C5000275ADFED307AE7EE055AA7EE256AE7EE70
:100C6000067AE7EE276A67EE266A60EEC00AF6EEBD
:100C7000007AE7EE260AB7EE000AD7EE270A30EE32
:100C8000600A704720EE007ADFED1D7A9FED1D5A55
:100C9000DFED1D5A9FED1D6ADFED1D6A1E4AA7EEAE
:100CA000275A9342DFED1B7AE5EE075AA5EE876AD5
:100CB000E6EE077AE7EE876A66EE876AD5DD174AC1
:100CC000934214DC03F17F4307EE903AB7EE006ADB
:100CD00036EE676A60EEC00AF6EE005AD7EE257A65
:100CE000E7EE260A77EEE00A36EE600A7047B6EEC7
:100CF000076AF5EE027AEDE7B7EE000A704700BF2B
:100D00004ED747ADF6740F317CF293B4010DD03756
:100D1000ABAA2A3D610BB6BA9999993E0000483FAB
:100D20002DE9F04F2DED048BDBB01C4603930691AB
:100D3000A24B6899089253F82150111D824604F184
:100D4000FF38C0F2A382D31E48BF131DDB100293ED
:100D50000133DB000793DDE907239B1A0593029B10
:100D600015EB0801A3EB080316D401319FED947A2B
:100D7000699819441EAA002BA4BF50F8234007EE1F
:100D8000904A03F10103ACBFF8EEE77AF0EE477A40
:100D90008B42E2EC017AEED1002DC0F2E782039B98
:100DA0001EAA02EB830446AE4FEA830C4046EF18BE
:100DB0000AEB8301B8F1000FDFED817A09DB2246EF
:100DC0005346F3EC016A32ED017A8B42E6EE877A04
:100DD000F7D10130B842E6EC017A04F10404E9D11C
:100DE00009AB0AAF03EB850907EB8503083B9FEDD1
:100DF000769ADFED748A059804930AEB0C0446AEEC
:100E000000955AAB03EB8503002D13ED140A4FEA4E
:100E1000850B16DD06EB85033A4660EE097AB0EEE7
:100E2000407AFDEEE77A73ED016AF8EEE77AB342B5
:100E3000A7EEE87A37EEA60ABDEEC77AA2EC017AF1
:100E4000EBD1019000F03AFBB0EE408AB4EE000A1C
:100E500028EE000A00F0E6FAF2EE007AA0EE678AC9
:100E600001980028FDEEC89AF8EEE97A38EE678A14
:100E700079DD05F1FF3EC0F1080357F82E1041FA65
:100E800003FC0CFA03F3CB1AC0F1070219EE901A17
:100E900043FA02F26144002A47F82E3009EE901A14
:100EA00069DCB5EE408AF1EE10FA40F0C080009B9C
:100EB00005F1FF3B5B4510DC05F18043013B07EB8F
:100EC00083030021944653F804294B4541EA02016B
:100ED000F9D16246002940F0F280009B013B57F8AF
:100EE0002330002B40F0E780049B4FF0010C53F8B7
:100EF00004290CF1010C002AF9D06B1CAC449E466D
:100F0000039A5119029A02EB030B0BF1804B699A79
:100F10000BF1FF3B06EB83051EAB02EB8B0B03EBE8
:100F20008101DBED017A9FED267AF8EEE77AB8F1E0
:100F3000000F0BF1040BC1ED007A0A4601F1040128
:100F400009DB534601E072ED017AF3EC016AA3423A
:100F5000A6EEA77AF7D10EF1010EE645A5EC017ACF
:100F6000DFDD65464DE740F09C806B1E57F823207F
:100F70001212002A95DD19EE903A002D03F10103BB
:100F800009EE903A40F39881396800297FD1012D0C
:100F900026D03B464FF0010C53F8041F00297AD0AD
:100FA0000CF10103C1F580719D4247F82C1016DD4C
:100FB00057F82310BB4407EB83030AE028AF02086D
:100FC00000000000000080430000803B0000C93F9B
:100FD0001968C1F1FF0143F8041B5B45F8D10121F9
:100FE00000280CDD012800F04881022807D105F116
:100FF000FF3C57F82C3003F03F0347F82C30022A0F
:101000007FF44FAFB7EE000A30EE488A00293FF474
:1010100048AF0992019000F051FA38EE408A099ADF
:101020000198B5EE408AF1EE10FA3FF440AF02921B
:10103000DDE90732B0EE480A981A0195009D00F0EC
:101040003DFA1FED207AB4EEC70AF1EE10FADDE9A1
:101050000132C0F259815FED247A059960EE277A5A
:101060000831FDEEE77A0591F8EEE77A03F1010B1E
:10107000A7EEC70AFDEEE77ABDEEC00A10EE101A21
:1010800047F8231017EE903A47F82B302EE0012353
:101090004FF0000C86E70CF1010CAC457FF47CAFFF
:1010A0009EE7F6EE007AB4EEE78AF1EE10FA80F2EF
:1010B000F2800022F5E66B1C9E469C4620E70599CF
:1010C000A1F1080057F82B1005902B46009D69B937
:1010D00003F18043023B07EB8303014653F8040905
:1010E0000BF1FF3B08390028F8D0059105980092D4
:1010F000B7EE000A00F0E2F9BBF1000F009AC0F26F
:1011000028814FEA8B0E46AB03EB0E060EF1040C62
:101110001FED537A07EB0C03311D73ED017AF8EEE6
:10112000E77ABB4267EE807A20EE070A61ED017A2A
:10113000F3D1002D1FED5B6A4FF0000420DB9348D4
:10114000DFED937AB0EE467A3146002303E09C420D
:1011500008DBB0EC017AF1EC016A01339D42E6EE66
:10116000877AF4DA5AAB03EB8403A34543ED287A7C
:10117000A6F1040604F1010305D0002D1C46DEDAB9
:10118000DFED837AEEE7689902291CDC002900F381
:1011900095800FD132ABDFED7E7A9C443CED017A35
:1011A000634577EE877AF9D10AB1F1EE677A069B4B
:1011B000C3ED007A19EE903A03F007005BB0BDEC86
:1011C000048BBDE8F08F689B032BF3D1BBF1000FBC
:1011D00000F0D4800EF5B4736B4432A913ED287A75
:1011E00001EB8B0373ED017AF0EE476A37EE277A55
:1011F000994277EEC77A83ED007A77EEA67AC3ED4F
:10120000017AEFD1BBF1010F40F3B8800BF1804BB5
:101210000EF5B4730BF1FF3B0DEB030E4FEA8B0B96
:101220000BF104031EED287A0B4433A873ED017A09
:10123000F0EE476A37EE277A984277EEC77A83ED69
:10124000007A77EEA67AC3ED017AEFD10BF1080BA5
:10125000DFED4F7A01EB0B03083133ED017A994250
:1012600077EE877AF9D1002A56D10699329A339BC4
:101270000A604B60C1ED027A9CE705F1FF3C57F82C
:101280002C3003F07F0347F82C30B8E6082307938F
:10129000002302935FE519EE903A002D03F101035C
:1012A00009EE903AC8BF02223FF76EAEF7EE007A21
:1012B00037EEC88A0222F4E5002191E632A9DFED7B
:1012C000347A01EB830333ED017A994277EE877A22
:1012D000F9D19DED327A8ABB069BBBF1000FC3EDBD
:1012E000007A77EE677A0BDD33A90123B1EC017A3E
:1012F00001339B4577EE877AF8DA0AB1F1EE677A27
:10130000069BC3ED017A55E7BDEEC00A9B4610EE81
:10131000101A47F82310E9E6DDED326A9DED337AC5
:10132000069BF1EE666AB1EE477AF1EE677AC3ED9D
:10133000006A83ED017AC3ED027A3BE7069BF1EE8A
:10134000676ABBF1000F77EE677AC3ED006ACBDC0A
:10135000D4E7689B022B0DDC002B14DC7FF42AAF52
:10136000DFED0B7A002A3FF422AF1EE7039B4FEA22
:10137000830C35E5689B032B7FF41CAFDFED047A0B
:10138000002AC9D171E7DFED027AA2E738AF02087F
:101390000000000010EE103A23F00043B3F1485F64
:1013A00004DAFDEEC07A17EE903A5BB360EE007A95
:1013B0009FED157ADFED155A9FED156ADFED156A81
:1013C000E7EE875A9FED147AA5EEA76A20EE275A1A
:1013D000E6EE276AA6EEA77A30B9DFED106AE7EEEF
:1013E000876AA6EE850A704727EE457AF6EE006A10
:1013F000A0EEA67ADFED0A6AD7EE270AE5EE260A06
:1014000030EE600A704700BFD3C92E2F342FD7B2F9
:101410001BEF3836010D50B98988083CABAA2ABEAB
:10142000ABAA2A3E10EE102AC2F3C7537F3B162BFD
:1014300022F0004128DC002B18DB1A4919410A422E
:1014400021D0DFED197A70EE277AF5EEC07AF1EE51
:1014500010FA18DD002A04DA4FF4000040FA03F312
:101460001A4422EA010300EE103A7047DFED0E7ACB
:1014700070EE277AF5EEC07AF1EE10FA03DD002A5D
:1014800008DB9FED0A0A7047B1F1FF4FFBD330EE46
:10149000000A7047FFEE007A002918BFB0EE670A15
:1014A000704700BFFFFF7F00CAF2497100000000D3
:1014B0009FED010A704700BF0000C07F82B08DED34
:1014C000010A019B33F000422AD0B2F1FF4F23D230
:1014D00013F0FF4F28D19DED017ADFED2A7A2A4BD8
:1014E00067EE277A9842CDED017A37DB019BC3F393
:1014F000C752193A0244FE2A1ADD9FED240A9FEDD5
:10150000247A019B002BF0EE407AB8BFB0EE470A78
:1015100020EE270A02B0704730EE000A02B0704792
:101520009DED010A02B07047D20D0244FE2AE4DCB0
:10153000002A0BDC12F1160F17DA4CF250339842E6
:10154000DBDC9FED140A9FED147ADAE723F0FF430A
:1015500043EAC25300EE103A02B070479FED0D0A05
:10156000DDED017A27EE800AD8E7193223F0FF4338
:1015700043EAC253DFED097A07EE103A27EE270A55
:10158000CCE700BF0000004CB03CFFFFCAF249713D
:10159000CAF249F16042A20D6042A28D0000003300
:1015A00081F0004102E000BF83F0004330B54FEA14
:1015B00041044FEA430594EA050F08BF90EA020F81
:1015C0001FBF54EA000C55EA020C7FEA645C7FEA14
:1015D000655C00F0E2804FEA5454D4EB5555B8BF37
:1015E0006D420CDD2C4480EA020281EA030382EAA8
:1015F000000083EA010180EA020281EA0303362D3A
:1016000088BF30BD11F0004F4FEA01314FF4801C0C
:101610004CEA113102D0404261EB410113F0004F1E
:101620004FEA03334CEA133302D0524263EB4303D5
:1016300094EA050F00F0A780A4F10104D5F1200E73
:101640000DDB02FA0EFC22FA05F2801841F10001CE
:1016500003FA0EF2801843FA05F359410EE0A5F1A2
:1016600020050EF1200E012A03FA0EFC28BF4CF0D3
:10167000020C43FA05F3C01851EBE37101F0004589
:1016800007D54FF0000EDCF1000C7EEB00006EEB96
:101690000101B1F5801F1BD3B1F5001F0CD3490820
:1016A0005FEA30004FEA3C0C04F101044FEA445277
:1016B00012F5800F80F09A80BCF1004F08BF5FEAFE
:1016C000500C50F1000041EB045141EA050130BDDE
:1016D0005FEA4C0C404141EB0101013C28BFB1F5F0
:1016E000801FE9D291F0000F04BF01460020B1FA3B
:1016F00081F308BF2033A3F10B03B3F120020CDA0E
:101700000C3208DD02F1140CC2F10C0201FA0CF0EB
:1017100021FA02F10CE002F11402D8BFC2F1200C50
:1017200001FA02F120FA0CFCDCBF41EA0C01904006
:10173000E41AA2BF01EB0451294330BD6FEA04044F
:101740001F3C1CDA0C340EDC04F11404C4F120023A
:1017500020FA04F001FA02F340EA030021FA04F34C
:1017600045EA030130BDC4F10C04C4F1200220FAA3
:1017700002F001FA04F340EA0300294630BD21FAE1
:1017800004F0294630BD94F0000F83F4801306BFA7
:1017900081F480110134013D4EE77FEA645C18BF9B
:1017A0007FEA655C29D094EA050F08BF90EA020F32
:1017B00005D054EA000C04BF1946104630BD91EA2A
:1017C000030F1EBF0021002030BD5FEA545C05D12D
:1017D0004000494128BF41F0004130BD14F580046C
:1017E0003CBF01F5801130BD01F0004545F0FE41E0
:1017F00041F470014FF0000030BD7FEA645C1ABF15
:10180000194610467FEA655C1CBF0B46024650EA4B
:10181000013406BF52EA033591EA030F41F4002177
:1018200030BD00BF90F0000F04BF0021704730B5FD
:101830004FF4806404F132044FF000054FF00001D2
:1018400050E700BF90F0000F04BF0021704730B593
:101850004FF4806404F1320410F0004548BF404268
:101860004FF000013EE700BF42004FEAE2014FEABD
:1018700031014FEA02701FBF12F07F4393F07F4F98
:1018800081F06051704732F07F4208BF704793F09B
:101890007F4F04BF41F40021704730B54FF46074AE
:1018A00001F0004521F000411CE700BF50EA0102B1
:1018B00008BF704730B54FF000050AE050EA01025A
:1018C00008BF704730B511F0004502D5404261EBCA
:1018D00041014FF4806404F132045FEA915C3FF40B
:1018E000D8AE4FF003025FEADC0C18BF03325FEAA8
:1018F000DC0C18BF033202EBDC02C2F1200300FA59
:1019000003FC20FA02F001FA03FE40EA0E0021FA7D
:1019100002F11444BDE600BF70B54FF0FF0C4CF46B
:10192000E06C1CEA11541DBF1CEA135594EA0C0F1D
:1019300095EA0C0F00F0DEF82C4481EA030621EA58
:101940004C5123EA4C5350EA013518BF52EA033593
:1019500041F4801143F4801338D0A0FB02CE4FF045
:101960000005E1FB02E506F00042E0FB03E54FF075
:101970000006E1FB03569CF0000F18BF4EF0010E6D
:10198000A4F1FF04B6F5007F64F5407404D25FEA69
:101990004E0E6D4146EB060642EAC62141EA55511C
:1019A0004FEAC52040EA5E504FEACE2EB4F1FD0C5E
:1019B00088BFBCF5E06F1ED8BEF1004F08BF5FEADC
:1019C000500E50F1000041EB045170BD06F000468E
:1019D00046EA010140EA020081EA0301B4EB5C043B
:1019E000C2BFD4EB0C0541EA045170BD41F4801133
:1019F0004FF0000E013C00F3AB8014F1360FDEBF58
:101A0000002001F0004170BDC4F10004203C35DA33
:101A10000C341BDC04F11404C4F1200500FA05F3B6
:101A200020FA04F001FA05F240EA020001F0004257
:101A300021F0004110EBD37021FA04F642EB0601CD
:101A40005EEA430E08BF20EAD37070BDC4F10C04F7
:101A5000C4F1200500FA04F320FA05F001FA04F2BB
:101A600040EA020001F0004110EBD37041F10001A7
:101A70005EEA430E08BF20EAD37070BDC4F12005B2
:101A800000FA05F24EEA020E20FA04F301FA05F21A
:101A900043EA020321FA04F001F0004121FA04F2C2
:101AA00020EA020000EBD3705EEA430E08BF20EA92
:101AB000D37070BD94F0000F0FD101F000464000CC
:101AC00041EB010111F4801F08BF013CF7D041EA4E
:101AD000060195F0000F18BF704703F00046520052
:101AE00043EB030313F4801F08BF013DF7D043EA23
:101AF0000603704794EA0C0F0CEA135518BF95EAD9
:101B00000C0F0CD050EA410618BF52EA4306D1D15F
:101B100081EA030101F000414FF0000070BD50EA7E
:101B2000410606BF1046194652EA430619D094EA08
:101B30000C0F02D150EA013613D195EA0C0F05D1F2
:101B400052EA03361CBF104619460AD181EA030146
:101B500001F0004141F0FE4141F470014FF00000FE
:101B600070BD41F0FE4141F4780170BD70B54FF099
:101B7000FF0C4CF4E06C1CEA11541DBF1CEA135519
:101B800094EA0C0F95EA0C0F00F0A7F8A4EB0504FB
:101B900081EA030E52EA03354FEA013100F08880F2
:101BA0004FEA03334FF0805545EA131343EA1263BB
:101BB0004FEA022245EA111545EA10654FEA002670
:101BC0000EF000419D4208BF964244F1FD0404F529
:101BD000407402D25B084FEA3202B61A65EB030585
:101BE0005B084FEA32024FF480104FF4002CB6EB42
:101BF000020E75EB030E22BFB61A754640EA0C00C2
:101C00005B084FEA3202B6EB020E75EB030E22BF01
:101C1000B61A754640EA5C005B084FEA3202B6EB42
:101C2000020E75EB030E22BFB61A754640EA9C0001
:101C30005B084FEA3202B6EB020E75EB030E22BFD1
:101C4000B61A754640EADC0055EA060E18D04FEA8F
:101C5000051545EA16754FEA06164FEAC30343EA2F
:101C600052734FEAC2025FEA1C1CC0D111F4801FFC
:101C70000BD141EA00014FF000004FF0004CB6E7F5
:101C800011F4801F04BF01430020B4F1FD0C88BF94
:101C9000BCF5E06F3FF6AFAEB5EB030C04BFB6EB9F
:101CA000020C5FEA500C50F1000041EB045170BD92
:101CB0000EF0004E4EEA113114EB5C04C2BFD4EBBF
:101CC0000C0541EA045170BD41F480114FF0000E43
:101CD000013C90E645EA060E8DE60CEA135594EABF
:101CE0000C0F08BF95EA0C0F3FF43BAF94EA0C0FC2
:101CF0000AD150EA01347FF434AF95EA0C0F7FF437
:101D000025AF104619462CE795EA0C0F06D152EA8A
:101D100003353FF4FDAE1046194622E750EA41066E
:101D200018BF52EA43067FF4C5AE50EA41047FF47F
:101D30000DAF52EA43057FF4EBAE12E74FF0FF3CE4
:101D400006E000BF4FF0010C02E000BF4FF0010CB5
:101D50004DF804CD4FEA410C7FEA6C5C4FEA430C2E
:101D600018BF7FEA6C5C1BD001B050EA410C0CBF7D
:101D700052EA430C91EA030F02BF90EA020F0020DF
:101D8000704710F1000F91EA030F58BF994208BF46
:101D900090422CBFD8176FEAE37040F00100704703
:101DA0004FEA410C7FEA6C5C02D150EA013C07D15A
:101DB0004FEA430C7FEA6C5CD6D152EA033CD3D0A5
:101DC0005DF8040B704700BF8446104662468C469F
:101DD0001946634600E000BF01B5FFF7B7FF0028D2
:101DE00048BF10F1000F01BD4DF808EDFFF7F4FFFB
:101DF0000CBF012000205DF808FB00BF4DF808ED86
:101E0000FFF7EAFF34BF012000205DF808FB00BFA8
:101E10004DF808EDFFF7E0FF94BF012000205DF8CA
:101E200008FB00BF4DF808EDFFF7CEFF94BF01207F
:101E300000205DF808FB00BF4DF808EDFFF7C4FF78
:101E400034BF012000205DF808FB00BF4FEA410CC1
:101E50007FEA6C5C02D150EA013C0AD14FEA430CA4
:101E60007FEA6C5C02D152EA033C02D14FF00000E1
:101E700070474FF0010070474FEA410212F500121F
:101E800015D211D56FF47873B3EB625212D94FEAC1
:101E9000C12343F0004343EA505311F0004F23FAAB
:101EA00002F018BF404270474FF00000704750EA00
:101EB000013005D111F0004008BF6FF000407047BD
:101EC0004FF00000704700BF4A0011D212F5001217
:101ED00011D20DD56FF47873B3EB62520ED44FEA82
:101EE000C12343F0004343EA505323FA02F0704702
:101EF0004FF00000704750EA013002D14FF0FF3040
:101F000070474FF0000070474FEA4102B2F1E043E2
:101F100024BFB3F5001CDCF1FE5C0DD901F0004CD0
:101F20004FEAC0024CEA5070B2F1004F40EB830020
:101F300008BF20F00100704711F0804F21D113F14C
:101F40003872BCBF01F00040704741F480114FEA85
:101F50005252C2F11802C2F1200C10FA0CF320FA0E
:101F600002F018BF40F001004FEAC1234FEAD3232B
:101F700003FA0CFC40EA0C0023FA02F34FEA430395
:101F8000CCE77FEA625307D150EA01331EBF4FF01E
:101F9000FE4040F44000704701F0004040F0FE4039
:101FA00040F40000704700BF53B94AB9002908BF88
:101FB00000281CBF4FF0FF314FF0FF3001F0DEB8BA
:101FC000ADF1080C6DE904CE00F006F8DDF804E090
:101FD000DDE9022304B070472DE9F047089D04466F
:101FE0008E46002B4DD18A42944669D9B2FA82F2CC
:101FF00052B101FA02F3C2F1200120FA01F10CFA08
:1020000002FC41EA030E94404FEA1C48210CBEFB3F
:10201000F8F61FFA8CF708FB16E341EA034306FBC8
:1020200007F199420AD91CEB030306F1FF3080F057
:102030001F81994240F21C81023E63445B1AA4B2A4
:10204000B3FBF8F008FB103344EA034400FB07F746
:10205000A7420AD91CEB040400F1FF3380F00A8187
:10206000A74240F207816444023840EA0640E41B7C
:1020700000261DB1D4400023C5E900433146BDE828
:10208000F0878B4209D9002D00F0EF800026C5E9CA
:10209000000130463146BDE8F087B3FA83F6002EE2
:1020A0004AD18B4202D3824200F2F980841A61EB5A
:1020B000030301209E46002DE0D0C5E9004EDDE778
:1020C00002B9FFDEB2FA82F2002A40F09280A1EB60
:1020D0000C014FEA1C471FFA8CFE0126200CB1FBB5
:1020E000F7F307FB131140EA01410EFB03F08842AE
:1020F00008D91CEB010103F1FF3802D2884200F23B
:10210000CB804346091AA4B2B1FBF7F007FB1011CC
:1021100044EA01440EFB00FEA64508D91CEB04046A
:1021200000F1FF3102D2A64500F2BB800846A4EBC5
:102130000E0440EA03409CE7C6F12007B34022FAB0
:1021400007FC4CEA030C20FA07F401FA06F31C43DF
:10215000F9404FEA1C4900FA06F3B1FBF9F8200CEC
:102160001FFA8CFE09FB181140EA014108FB0EF032
:10217000884202FA06F20BD91CEB010108F1FF3A82
:1021800080F08880884240F28580A8F1020861448E
:10219000091AA4B2B1FBF9F009FB101144EA01419C
:1021A00000FB0EFE8E4508D91CEB010100F1FF3447
:1021B0006CD28E456AD90238614440EA0840A0FBDF
:1021C0000294A1EB0E01A142C846A64656D353D0B5
:1021D0005DB1B3EB080261EB0E0101FA07F722FAD9
:1021E00006F3F1401F43C5E9007100263146BDE802
:1021F000F087C2F12003D8400CFA02FC21FA03F365
:10220000914001434FEA1C471FFA8CFEB3FBF7F0E5
:1022100007FB10360B0C43EA064300FB0EF69E420A
:1022200004FA02F408D91CEB030300F1FF382FD2A3
:102230009E422DD9023863449B1B89B2B3FBF7F64B
:1022400007FB163341EA034106FB0EF38B4208D924
:102250001CEB010106F1FF3816D28B4214D9023E65
:102260006144C91A46EA004638E72E46284605E783
:102270000646E3E61846F8E64B45A9D2B9EB020854
:1022800064EB0C0E0138A3E74646EAE7204694E7E4
:102290004046D1E7D0467BE7023B614432E7304617
:1022A00009E76444023842E703685A004CBF43F030
:1022B000004323F000431844704700BF2DE9F84362
:1022C00029B34F1E044615463E464FF0000808EB62
:1022D000060101EBD171491004EBC1094846FFF733
:1022E000E3FF0346C80008308F42204409D0AB42C8
:1022F00009D8FFF7D9FF0138A8420AD201F1010835
:10230000E5E7AB4205D9884501D04E1EDFE74FF027
:1023100000094846BDE8F883012807D0022807D005
:10232000044B00280CBF1846002070470248704735
:1023300002487047F1290008F5290008F92900082A
:1023400030B5234B83B004468D1E3BB301A928460C
:10235000AFF30080E8B101992A46FFF7AFFF0146CD
:10236000B8B1FFF7A1FF4B68A064012B2CD0002B64
:1023700001F1040024DBFFF797FF0023C4E91303F6
:102380000368002B11DBFFF78FFF2061002003B0F3
:1023900030BD00230920236103B030BD0D4B0E4931
:1023A000C91AC91018460191D6E7C3F30360FFF7B5
:1023B000B3FF0028206114BF0020092003B030BD06
:1023C0000123C4E91303DBE7002323610520DEE7D3
:1023D00000000000F8EF020808F902080368DA07B5
:1023E00010B5044606D49B0700F1480009D500F05B
:1023F0005BFC2368590709D51A070ED5DB0613D5F0
:1024000010BD00F049FC23685907F5D404F1D00051
:1024100000F052FC23681A07F0D404F5A87000F00D
:1024200053FC2368DB06EBD404F5E870BDE81040EC
:1024300000F08EBC092070470346006800B11844C4
:10244000704700BF704700BF70B504460E46316C40
:102450002046FFF775FF054688B9326C6261236933
:1024600032462146012098470828F0D0072806D197
:102470002846316CFFF7E6FF301D00F001FC00F04C
:102480007FFE00BF2DE9F0470D1DD0F80C80D0F87D
:102490001890074614460FCDADF5727D0DF10C0C6A
:1024A000ACE80F000FCDACE80F000FCDACE80F008B
:1024B00095E80F0002AE4FF0000E8CE80F00C6F852
:1024C00000E020E0336C7B614FF4F07231467AA873
:1024D00001F0E8F93B697AAA394650469847889B4B
:1024E00073642146CDE9006905463B463A46012022
:1024F000C0470446E0B94FF4F0727AA9304601F0C3
:10250000D1F9082D1AD1316C3846FFF719FF09347B
:102510005FFA84FA05460028D4D0B36B73643A4658
:10252000CDE900693B464AF010010120C04700B1E7
:10253000092528460DF5727DBDE8F087072DF7D1F6
:102540002046316CFFF77EFF03A800F099FB00BF27
:10255000406C7047F0B5CB6B0B6401F1040C0E4678
:102560000546BCE80F00F9B001AC0FC4BCE80F0091
:102570000FC4BCE80F000FC49CE80F004FF0FF37FA
:1025800084E80F00009706E02B696A4629469847C1
:102590000828044608D110992846FFF7D1FE0028E4
:1025A000F2D0092079B0F0BD6846FFF717FF062C7E
:1025B000F7D131462846FFF747FF00BFC160D96B0E
:1025C00082611964002219465CE700BF70B5C668D5
:1025D00043690B64AEB903690A4604460D460146D9
:1025E00002209847072805D008280FD12946204601
:1025F000FFF72AFF3046296CFFF724FF281D00F063
:102600003FFB0122FFF73EFF00F0BAFD00F0B8FDEE
:10261000C2681AB1CA6B0A64002233E79AE700BFA6
:10262000704700BF836801460BB10120184770470F
:10263000012912D009D873B90F2A0CD800EB8202F5
:1026400018465368009A136070470339012994BFF4
:10265000012002207047022070470846704700BFE3
:1026600000B585B00A46002303A900911946FFF77B
:10267000DFFF039805B05DF804FB00BF012912D00D
:1026800009D873B90F2A0CD800EB8200009A12689F
:102690004260184670470339012994BF0120022087
:1026A0007047022070470846704700BF10B584B0DD
:1026B000002303AC039200940A461946FFF7DEFF9D
:1026C00004B010BD70B5D36B136402F1040C054661
:1026D0000C46BCE80F00ADF50E7D0DF15C0EAEE8CA
:1026E0000F00BCE80F00AEE80F00BCE80F00AEE83A
:1026F0000F009CE80F004FF0FF368EE80F00169693
:1027000010E0FFF7D3FF214616A8A847034616AAF4
:102710006946082083B9049B9847052806460CD0D3
:10272000092809D026996846FFF70AFE03466A463B
:102730000C2116A8002BE4D0092616A8FFF74EFEA0
:1027400030460DF50E7D70BD2DE9F04FCC6C89B093
:102750001E4654F8043B06940D46174600F0030845
:10276000002E79D01A0C1B0405938DF81D2002232E
:10277000D2B204EB82048DF81C302B6DB8F1020F3D
:1027800008BFAC6B13F001030CD005A9384600F06C
:1027900079FB18B9082009B0BDE8F08F092009B00D
:1027A000BDE8F08FD4F800A0BAF1000FEDD001938E
:1027B00000F008030293022E4AD0B4F800A0B4F847
:1027C00002900434AB6C29F0010B0F2138469B4476
:1027D000FFF746FF834539D82AF001039B44834520
:1027E00094BF002001204FEA490303F002030AF0DE
:1027F000010A43EA0A03012B49D0022B32D0002BF5
:10280000CCD1B8F1000F02D0002840F0CD800434C4
:10281000D4F800A0BAF1000FCDD105A9384600F0D8
:1028200031FB0028BAD1019B002BB3D00F213846D1
:10283000FFF716FF0E2102463846FFF737FF3846EE
:102840006A4A0F21FFF732FF0720A8E70020CAE7F6
:10285000D4F804900834B5E71B0205930323ADF8C0
:102860001C308AE7236823F0004BB8F1000F45D1F4
:1028700028B1029A002A5CD0BBF1000F74D0002B63
:1028800000DA04340BF1010B04EB8B04C0E7B8F160
:10289000000F19D1B0B163682268991C4FEAD27257
:1028A0003FF47CAF05F158010133049100F09080B2
:1028B000201DFFF7C1FD04AB0146284626F046FC6B
:1028C00000285BD10834A3E70D213846D5F82090C5
:1028D000FFF7C6FE8145F5D1AB6A9C42F2D1204696
:1028E000FFF7E2FC0F2102463846FFF7DFFE3846CD
:1028F0002A460021FFF7DAFE072050E70D2138466F
:10290000D5F82090FFF7ACFE814501D02368B6E7EB
:10291000AB6A9C42FAD104230022C5E90B23E318D9
:10292000C5F828B06B632368002B59DB01230193A2
:10293000A8E705F15803CDF80C8004F1040AB0466D
:1029400091461E460EE050460496FFF775FD0022A4
:10295000014604AB284609F101090AF1040A26F0F0
:10296000F5FBE0B9D945EED10D213846FFF778FEE9
:10297000049BAC62C5E90803062010E781460D21DF
:102980003846FFF76DFEB9F1020F286225D12B46BC
:10299000049A43F82C2F6B62AC620620FFE6464691
:1029A0002368DDF80C806AE72046FFF77DFC0434DD
:1029B0000246AC632846144626F022FC00283FF469
:1029C000EDAE384622460F21FFF770FE0720E6E6FF
:1029D0000D213846FFF744FE2862049B6B62DBE75B
:1029E0000BF1010004EB80007AE700BF21A502088B
:1029F0000023A9E60123A7E60223A5E62DE9F0437B
:102A00000646C3B015461C46042900F2BF80DFE825
:102A100001F09E57BD2D0300002C40F0B780102A16
:102A200000F2B4800368D80600F1F98020AF384680
:102A300000F098F9B46B394600234FF0010C0CFA02
:102A400003F22A42204603F1010303D050F8042B7D
:102A50000A600446042B01F10401F0D13846B46346
:102A600000F076F9002043B0BDE8F083032C40F07D
:102A70008D8094B204EB1243102B4FEA124500F202
:102A8000858003681F0700F1D28020AF384600F030
:102A90003DF9B26B07EBC50154B10B46D01A01EBFF
:102AA000C401E4001D5843F8045B8B42FAD1224470
:102AB0003846B26300F008F9002043B0BDE8F08367
:102AC000012C4FEA124895B25CD0052C5ED108EB80
:102AD0000509B9F1200F59D8B8F10F0F79D9A946D6
:102AE000002D40F08A80B36B6DB320AF4FF000092A
:102AF00007EBC807043F03EBC50553F8041B47F871
:102B0000041FAB42F9D1B9F1000F0FD06F46414617
:102B1000102938BF102107EBC101843903EBC90527
:102B200053F8040B41F8040FAB42F9D1012C00F02B
:102B30008680B8F10F0FB56347D9B9F1000F02D005
:102B4000684600F0B9F8002043B0BDE8F083ECB966
:102B5000806B23461FFA82FC0124371D04FA03F21E
:102B600012EA0C0F014604D051F8042B47F8232039
:102B700008460133102BF1D115F40055E3D1B063B1
:102B8000284604E008EB0503102B03D9022043B0CC
:102B9000BDE8F083B8F10F0FF8D83368DA0706D52F
:102BA000304623F0030340F8483B00F079F820AFAB
:102BB000384600F075F8B36B002D97D11D460435EB
:102BC000B563384600F068F8BDE720A800F06CF85F
:102BD000B3E7B9F1100F40D9A9F110093368D9074B
:102BE00008D523F00103304643F0020340F8483B88
:102BF00000F05EF8B9F1000F32D033685A0720D4E4
:102C0000B8F10F0F25D96F463846C8F1100500F00E
:102C100057F8002DB36B7FF77AAF20AF68E723F04A
:102C20001003336006F5E87000F09CF8FEE623F030
:102C30000803036000F5A87000F068F825E720AFEE
:102C4000BDE7304623F0040340F8D03B00F038F8ED
:102C5000D6E720A800F02CF8D5E74FF00009BDE733
:102C6000B8F10F0F3FF63FAF20AF384600F020F825
:102C7000B36B002D7FF43AAF384600F015F862E7E9
:102C800000F1340191E838009C46A6464CF8045DFA
:102C900090E8FF0FE54600BD90EC210B704700BFA8
:102CA00080EC210B704700BF90EC200B704700BFF9
:102CB00080EC200B704700BFD0EC200B704700BFAA
:102CC000C0EC200B704700BFF0EC0201F0EC0211E9
:102CD000F0EC0221F0EC0231F0EC0241F0EC025198
:102CE000F0EC0261F0EC0271F0EC0281F0EC029188
:102CF000F0EC02A1F0EC02B1F0EC02C1F0EC02D178
:102D0000F0EC02E1F0EC02F1704700BFE0EC0201F0
:102D1000E0EC0211E0EC0221E0EC0231E0EC0241D7
:102D2000E0EC0251E0EC0261E0EC0271E0EC0281C7
:102D3000E0EC0291E0EC02A1E0EC02B1E0EC02C1B7
:102D4000E0EC02D1E0EC02E1E0EC02F1704700BF00
:102D5000B0FC0181B0FC0191B0FC01A1B0FC01B15B
:102D6000704700BFA0FC0181A0FC0191A0FC01A163
:102D7000A0FC01B1704700BFEC4600B52DE9005042
:102D80002DE9FF1F4FF000032DE90C0001A9FFF70B
:102D9000E1FBDDF840E012B0704700BFEC4600B543
:102DA0002DE900502DE9FF1F4FF000032DE90C0025
:102DB00001A9FFF70BFCDDF840E012B0704700BF3F
:102DC000EC4600B52DE900502DE9FF1F4FF0000340
:102DD0002DE90C0001A9FFF71BFCDDF840E012B063
:102DE000704700BFEC4600B52DE900502DE9FF1FEC
:102DF0004FF000032DE90C0001ABFFF7DFFBDDF81E
:102E000040E012B0704700BFEC4600B52DE900501D
:102E10002DE9FF1F4FF000032DE90C0001AAFFF779
:102E200051FCDDF840E012B0704700BF027A034663
:102E30007AB9427AA2B14168013A10B44272086884
:102E400003220C1D1A7202025C60000E10BC1A6094
:102E500070470068013A1A7202021A60000E704749
:102E6000B020704700B585B0002303AA0092194630
:102E70000C22FFF7DDFB039805B05DF804FB00BFF3
:102E8000F0E700BF2DE9F043054685B00E464FF050
:102E900000083046FFF7CAFFB028044600F0BA80A9
:102EA000070620D500F0F003802B4DD0902B36D0B4
:102EB000A02B60D0B02B74D0C02B00F08B8000F022
:102EC000F803D02B0BD100F007020132052342F4A6
:102ED000002201212846FFF791FD0028D9D00920C2
:102EE00005B0BDE8F0838300DBB21F1D0DF10C09B6
:102EF00000231946CDF800900D222846FFF798FBD5
:102F0000039BCDF8009060064CBFDF1BFF18002329
:102F10000D22194628460397FFF7B0FBB9E700F0EA
:102F20000D030D2BDBD003AF002300F00F02194679
:102F300000972846FFF77CFB002300970D221946D7
:102F40002846FFF79BFBA4E73046FFF76FFF2402FC
:102F50002043B0F5004FC2D004010023A2B21946AD
:102F60002846FFF74BFD0028B9D114F4004F18BFD5
:102F70004FF001088DE7C24302F007034FF47F6270
:102F80001A41010702F47F624FF0000348BF42F488
:102F9000804219462846FFF731FD00283FF479AFFB
:102FA0009DE7B1283BD0B22800F09380B32841D0F0
:102FB00000F0FC03B42B92D000F007020132012391
:102FC00042F4002219462846FFF718FD00283FF476
:102FD00060AF84E7C6284AD0C72854D000F0F80371
:102FE000C02B63D0C82868D0C9287FF478AF30469A
:102FF000FFF71CFF020300F00F0002F47022013003
:103000000243012105232846FFF7F8FC00283FF47E
:1030100040AF64E7B8F1000F18D0002060E73046F9
:10302000FFF704FF024600283FF459AF10F0F00309
:10303000C8D054E73046FFF7F9FE020300F00F0353
:10304000013302F470221A430123BBE703AC434669
:103050000E22414600942846FFF7EAFA00944346C0
:103060000F2241462846FFF709FB404638E7304625
:10307000FFF7DCFE020300F00F03013302F47022BD
:103080001A4303239EE73046FFF7D0FE024600288E
:103090003FF425AF10F0F0037FF421AF0421284660
:1030A000FFF7ACFC00283FF4F4AE18E700F00F0285
:1030B0000132032342F4202284E73046FFF7B6FEB4
:1030C00000F0F00200F00F031032013343EA023245
:1030D00097E700230DF10C090D221946CDF8009059
:1030E0002846FFF7A5FA3046FFF7A0FE02064FF08C
:1030F00002040CD5039B00F07F00A040184403900D
:103100003046FFF793FE030604F10704F2D4039B55
:10311000CDF8009000F07F02A24003F501731A443D
:103120000023039219460D222846FFF7A7FAB0E6BE
:1031300010B5C26C536884B04FF0030C08321C0207
:1031400008461B0E01A9019402928DF80CC08DF85F
:103150000D30FFF797FE04B010BD00BF08B5FFF7B4
:103160008FFE806C08BD00BF08B5FFF789FEC06CFC
:10317000C379023300EB830008BD00BF704700BF76
:1031800008B5062000F0A0FF012010F0E9F900BF0B
:10319000002301461A46184605F062B913460A464E
:1031A0000146022005F05CB9014B1868704700BF6A
:1031B0000800002038B5084B084D5B1B9C1007D059
:1031C000043B1D44013C55F804399847002CF9D1C3
:1031D000BDE8384027F070BC2CF9020828F9020835
:1031E00070B50D4E0D4D761BB61006D0002455F867
:1031F000043B01349847A642F9D1094E094D761B8C
:1032000027F054FCB61006D0002455F8043B0134D6
:103210009847A642F9D170BD08F9020808F90208DA
:1032200028F9020808F90208024B0146186800F064
:103230000BB800BF08000020024B0146186806F0DA
:10324000D9B900BF080000202DE9F04F01F10B06AD
:10325000162E83B0044624D8102900F2BA8000F05C
:1032600089FC102618220220B74F3A44A2F1080127
:1032700053688B4200F0BA805A68D96822F0030282
:103280001A449D68E9608D60516841F00101204653
:10329000516003F1080500F06FFC284603B0BDE85B
:1032A000F08F36F0070600F19480B14200F2918071
:1032B00000F060FCB6F5FC7FC0F09681730A00F068
:1032C0008F80042B00F26B81B30903F1390003F105
:1032D000380CC3009C4F3B44A3F108055B689D423A
:1032E00006D10CE0002980F22B81DB689D4206D0DC
:1032F0005A6822F00302911B0F29F3DD60463D69F5
:10330000DFF848C265457CD06A6822F00302931B4F
:103310000F2B00F37781002BC7E904CC80F2688182
:10332000B2F5007F80F01681D308796801334FEA47
:10333000521E012202FA0EF20A4357F833E0C5F892
:1033400008E007EBC3010839E9607A6047F83350B9
:10335000CEF80C50831001219940914257D8114268
:1033600006D120F003004900114200F10400FAD018
:1033700007EBC0094D468646D5F80C80454508D177
:1033800019E1002B80F22081D8F80C80454500F02F
:103390001281D8F8042022F00302931B0F2BF0DDDA
:1033A0002046D8E9025408EB060146F00106C8F8A9
:1033B0000460EC60A56043F00104C7E90411C1E9B1
:1033C00002CC4C6048F8023000F0D6FB08F108054A
:1033D00002E00C2323600025284603B0BDE8F08FEF
:1033E0004FF4007340204FF03F0C73E7D3689A42CC
:1033F00008BF02307FF440AF3D69DFF850C165453A
:1034000082D17A688310012199409142A7D9BD6881
:103410006B6823F00308464503D8A8EB06030F2B7F
:103420007EDCDFF82C91D7F80824D9F8003001327F
:10343000334405EB080A00F02F8103F580530F3366
:1034400023F47F6B2BF00F0B5946204600F08EFDC6
:10345000411C024600F0EF80824500F2EA80D9F874
:1034600004105944C9F804100B4600F04B81D7F8FA
:10347000081401311BBFA2EB0A0A5344C7F8082401
:10348000C9F8043012F0070300F01281C3F10801FB
:103490000A44C3F5805193440831A1EB0B01C1F3F9
:1034A0000B0A514620460192009300F05FFD421C3A
:1034B000DDE9003200F04B81831A03EB0A0BD9F8E7
:1034C0000400BA604BF001030AEB0001BD425360F7
:1034D000C9F8041000F02281B8F10F0F40F22081EA
:1034E0006B68A8F10C0020F0070003F00103034310
:1034F0006B604FF0050C2B180F28C3E901CC00F2CC
:103500002D8153681546D9F82C208A42D9F83020ED
:1035100038BFC9F82C108A4238BFC9F830108CE087
:10352000AA1943F0010346F001066E602046BA6016
:10353000536000F021FB0835284603B0BDE8F08F4A
:10354000D9681A449DE600BF3804002040040020DA
:103550000C0C0020B2F5206F4FEA522363D3142BDA
:1035600000F2B88003F15C01C9005B3307EB010E88
:103570007958AEF1080E8E4500F091804B6823F02B
:103580000303934202D989688E45F7D1D1F80CE044
:103590007A68C5E9021ECEF80850CD60DAE6142B31
:1035A00059D9542B00F29E80330B03F16F0003F1C5
:1035B0006E0CC3008EE60EF1010E1EF0030F05F136
:1035C00008057FF4D9AE51E0424445465368D8F827
:1035D0000C1043F00103536055F8083F2046D960B2
:1035E0008B6000F0C9FAF7E6F00806F108023BE646
:1035F0002A442046536843F001035360083500F025
:10360000BBFAE9E6A919204646F0010643F0010499
:103610006E60C7E90411C1E902CC4C60AB5000F008
:10362000ABFA0835D8E6930903F13901C9003833FC
:103630009CE7BD4260D0BD686B6823F0030B5E451C
:10364000ABEB060302D80F2B3FF76AAF204600F022
:1036500093FA0025C0E603F15C0003F15B0CC300A4
:1036600038E659F808394B4540F0968010F0030FC2
:1036700000F1FF30F5D17B6823EA01037B6049004C
:1036800099423FF6C4AE19B9C1E649000EF1040EE5
:103690001942FAD070466BE603F1100BD4E69A108B
:1036A0004FF001087B6808FA02F21A437A6070E76B
:1036B00002EB0B014942C1F30B0A5146204601932C
:1036C000009200F053FC431CDDE900237FF4F4AECC
:1036D0009A46F4E6542B26D8130B03F16F01C90068
:1036E0006E3343E7B3F5AA7F26D8F30B03F17800D6
:1036F00003F1770CC300EDE5D9F804305B44C9F859
:103700000430B4E6CAF30B0000287FF4B0AEBD6805
:1037100008EB0B0343F001036B60F4E61546F2E699
:103720000123536092E7B3F5AA7F21D8D30B03F1AD
:103730007801C900773319E740F25452934221D8F7
:10374000B30C03F17D0003F17C0CC300C2E5083B20
:103750009B44ABEB020B4FF0000AB0E605F1080109
:10376000204605F047FFBD68D9F804106B68CAE62B
:1037700040F254518B420BD8930C03F17D01C900E8
:103780007C33F3E64FF47E737F204FF07E0CA1E58F
:103790004FF47E717E23E9E67B6870E7000000004D
:1037A00001F0FF01102A2BDB10F0070F08D010F8F2
:1037B000013B013A8B422DD010F0070F42B3F6D1F6
:1037C000F0B441EA012141EA014122F007047FF00F
:1037D00000070023F0E80256083C85EA010586EA66
:1037E000010685FA47F5A3FA87F586FA47F6A5FAA2
:1037F00087F68EB9EED1F0BC01F0FF0102F00702AE
:1038000032B110F8013B013A83EA010313B1F8D158
:103810000020704701387047002D06BF3546033839
:10382000073815F0010F07D1013015F4807F02BF72
:10383000013015F4C03F0130F0BC0138704700BFC3
:10384000032A70B515D940EA010C1CF0030F044699
:103850000B4621D1194620460E680568B54204F191
:10386000040403F1040317D1043A032A204619463D
:10387000F0D8541EA2B100F1FF3C013901E0C31899
:103880000CD01CF801EF11F8012F9645A4EB0C03A6
:10389000F5D0AEEB020070BD541EECE7184670BDCB
:1038A000104670BD844641EA000313F003036DD156
:1038B000403A41D351F8043B40F8043B51F8043BF3
:1038C00040F8043B51F8043B40F8043B51F8043BFA
:1038D00040F8043B51F8043B40F8043B51F8043BEA
:1038E00040F8043B51F8043B40F8043B51F8043BDA
:1038F00040F8043B51F8043B40F8043B51F8043BCA
:1039000040F8043B51F8043B40F8043B51F8043BB9
:1039100040F8043B51F8043B40F8043B51F8043BA9
:1039200040F8043B51F8043B40F8043B51F8043B99
:1039300040F8043B403ABDD2303211D351F8043B39
:1039400040F8043B51F8043B40F8043B51F8043B79
:1039500040F8043B51F8043B40F8043B103AEDD2E8
:103960000C3205D351F8043B40F8043B043AF9D239
:10397000043208D0D2071CBF11F8013B00F8013B0C
:1039800001D30B8803806046704700BF082A13D319
:103990008B078DD010F003038AD0C3F10403D21A31
:1039A000DB071CBF11F8013B00F8013B80D331F865
:1039B000023B20F8023B7BE7043AD9D3013A11F8E5
:1039C000013B00F8013BF9D20B7803704B78437050
:1039D0008B7883706046704788420DD98B1883427C
:1039E0000AD900EB020CBAB1624613F801CD02F815
:1039F00001CD9942F9D170470F2A0ED8034602F142
:103A0000FF3C4AB10CF1010C013B8C4411F8012B35
:103A100003F8012F6145F9D1704740EA01039B0784
:103A200050D1A2F1100370B501F1200C23F00F0565
:103A300001F1100E00F11004AC441B095EF8105C9B
:103A400044F8105C5EF80C5C44F80C5C5EF8085CB2
:103A500044F8085C5EF8045C44F8045C0EF1100E57
:103A6000E64504F11004E9D1013312F00C0F01EB2B
:103A7000031102F00F0400EB031327D0043C24F0E1
:103A800003064FEA940C1E441C1F8E465EF8045B2E
:103A900044F8045FB442F9D10CF1010402F00302CE
:103AA00003EB840301EB840102F1FF3C4AB10CF10A
:103AB000010C013B8C4411F8012B03F8012F6145E7
:103AC000F9D170BD02F1FF3C03469BE72246EBE7CC
:103AD000830730B548D0541E002A3FD0CAB20346EF
:103AE00001E0013C3AD303F8012B9D07F9D1032CE7
:103AF0002DD9CDB245EA05250F2C45EA054536D925
:103B0000A4F1100222F00F0C03F1200EE6444FEA5C
:103B1000121C03F1100242E9045542E90255103229
:103B20007245F8D10CF1010214F00C0F03EB0212F4
:103B300004F00F0C13D0ACF1040323F0030304339F
:103B4000134442F8045B9342FBD10CF003042CB104
:103B5000CAB21C4403F8012B9C42FBD130BD644621
:103B60001346002CF4D1F9E703461446BFE71A4682
:103B7000A446E0E7704700BF704700BF10B4044C94
:103B800003460A4620685DF8044B194600F002B867
:103B9000080000202DE9F84F1746002900F0988012
:103BA00007F10B0580460C46FFF7E4FF162D5DD8A4
:103BB00010252A46AF425ED854F8041C21F00306B3
:103BC0009642A4F1080962DABC4BD3F808C009EBAD
:103BD0000600844500F09780D0F804C02CF0010363
:103BE00003445B68DB0768D42CF0030C06EB0C0382
:103BF000934247DACB0710D454F8083CA9EB030AE8
:103C0000DAF8043023F003018C44B444944580F284
:103C100011817318934280F2E88039464046FFF7DD
:103C200013FB0746E0B154F8043C23F001034B4476
:103C3000A0F10802934200F0D280321F242A00F241
:103C4000F580132A00F2AC80034622461168196001
:103C50005168596092689A602146404605F0CAFC56
:103C60004046FFF789FF3846BDE8F88F25F0070585
:103C7000002D2A469EDA0C23C8F80030002738466B
:103C8000BDE8F88F1E46D0E90223D3609A60731B0B
:103C90000F2B22D8D9F8043003F0010333434E44EC
:103CA000C9F80430736843F0010373604046274647
:103CB000FFF762FF3846BDE8F88FC907ADD454F866
:103CC000083CA9EB030ADAF8041021F00301A0E78D
:103CD000BDE8F84F1146FFF7B7BAD9F8041001F064
:103CE00001012943C9F8041009EB05014E4443F0D2
:103CF00001034B60736843F0010308317360404671
:103D000005F078FCD2E7DCF8040020F0030B06EBAA
:103D10000B0C05F1100084454DDAC9073FF57DAF66
:103D200054F8081CA9EB010ADAF8041021F0030189
:103D30008B44B34458453FF76CAF5746DAF80C1044
:103D400057F8080F321F242AC160886000F2DB8018
:103D5000132A40F2D6802168CAF808106168CAF8B0
:103D60000C101B2A00F2DF8008340AF110022168CF
:103D7000116061685160A16891600AEB0501ABEBCD
:103D8000050242F0010299604A60DAF8043003F05B
:103D900001031D434046CAF80450FFF7EDFE6EE7ED
:103DA00023680360636843601B2A68D804F1080233
:103DB00000F108034AE709EB05029A60ACEB050342
:103DC00043F00103536054F8043C03F001031D4326
:103DD000404644F8045CFFF7CFFE27464FE750F813
:103DE000043C23F003031E4451E75746DAF80C1055
:103DF00057F8080F321F242AC16088604CD8132A54
:103E000048D92168CAF808106168CAF80C101B2A42
:103E100056D808340AF110021E46236813606368FE
:103E20005360A3689360D1463C4630E72146FFF7D4
:103E3000D3FD11E7D0E902135746CB60996057F8DC
:103E4000081FDAF80C30CB60321F242A99602DD875
:103E5000132A29D92368CAF808306368CAF80C30D5
:103E60001B2A42D808340AF1100322681A606268DB
:103E70005A60A2689A606646D1463C4607E7A36846
:103E80008360E368C360242A26D004F1100200F1A5
:103E90001003DBE63A46BFE7214638461E46D146C8
:103EA000FFF79AFD3C46F2E63B46DEE72146384600
:103EB0006646D146FFF790FD3C46E8E63804002010
:103EC000A168CAF81010E168CAF81410242A20D09A
:103ED00010340AF118029FE72369036161694161A7
:103EE00004F1180200F11803B0E6A368CAF8103014
:103EF000E368CAF81430242A21D010340AF11803D8
:103F0000B3E73A4633E721463846FFF765FD164BDF
:103F100033E72269CAF818206269CAF81C201834ED
:103F20000AF1200278E7A168CAF81010E168CAF81F
:103F30001410242A0DD010340AF1180217E723694F
:103F4000CAF818306369CAF81C3018340AF1200323
:103F50008BE72269CAF818206269CAF81C20183455
:103F60000AF1200203E700BF3804002038B5074DEE
:103F70000022044608462A600FF008FB431C00D0CC
:103F800038BD2B68002BFBD0236038BD400C0020CF
:103F900038B5D0F8DC420CB1002038BD8021054690
:103FA000FFF752F90246C5F8DC0230B1031F7C323C
:103FB00043F8044F9342FBD1EEE74FF0FF3038BD9A
:103FC0001F29F8B5054609D8D0F8DC620C4617461B
:103FD0004EB156F8240046F82470F8BD162303604D
:103FE0004FF0FF30F8BD8021FFF72EF90646C5F8E7
:103FF000DC0240B1031F00F17C05002143F8041FDF
:104000009D42FBD1E5E74FF0FF30F8BD1F2938B5E1
:10401000054621D8D0F8DC220C466AB152F821308E
:1040200053B1012B16D0591C10D00025204642F860
:1040300024509847284638BD284600F003F9224608
:1040400001462846BDE8384000F0E6B81623036074
:10405000012038BD002038BD162303604FF0FF302B
:1040600038BD00BF1F292CD8D0F8DC2238B50C464B
:10407000054682B152F8243002EB84024BB1591C40
:104080001AD0012B16D000252046156098472846E7
:1040900038BD012038BD8021FFF7D6F80246C5F8AB
:1040A000DC0258B1031F00217C3043F8041F984202
:1040B000FBD1DFE7032038BD022038BD4FF0FF30D1
:1040C00038BD4FF0FF30704738B5154B1F281D68BD
:1040D00020D8D5F8DC22044662B152F820304BB12A
:1040E000012B15D0591C0FD0002542F820509847BD
:1040F000284638BD284600F0A5F822460146284645
:10410000BDE8384000F088B816232B60012038BD88
:10411000002038BD16232B604FF0FF3038BD00BFA4
:1041200008000020134B1F2870B51E6809D80D46E3
:10413000D6F8DC12044649B151F8240041F8245065
:1041400070BD162333604FF0FF3070BD80213046C4
:10415000FFF77AF80146C6F8DC0240B1031F00F110
:104160007C0C002243F8042F6345FBD1E4E74FF0B9
:10417000FF3070BD0800002038B50C4B1D68D5F825
:10418000DC420CB1002038BD80212846FFF75CF8E6
:10419000C5F8DC0238B1031F00F17C0243F8044F7C
:1041A0009342FBD1EEE74FF0FF3038BD080000200E
:1041B00038B5184B1F281D6828D8D5F8DC220446CE
:1041C00082B152F8243002EB84024BB1591C1BD04F
:1041D000012B17D00025204615609847284638BD8A
:1041E000012038BD80212846FFF72EF80246C5F889
:1041F000DC0258B1031F00217C3043F8041F8342C6
:10420000FBD1DEE7032038BD022038BD4FF0FF3080
:1042100038BD00BF0800002070B50C46084D0346AD
:104220000026204611461C462E600FF091F9431CD3
:1042300000D070BD2B68002BFBD0236070BD00BF89
:10424000400C00200FF082B908B410B5002A9DB0D0
:10425000044633DB4FF40273ADF81430029106913B
:1042600020AB17D0013A4FF6FF7104920792ADF8D8
:1042700016101F9A019302A901F072FD421C01DA87
:104280008B232360029B00221A701DB0BDE81040F2
:1042900001B070474FF6FF7104920792ADF8161007
:1042A0001F9A019302A901F05BFD431C01DA8B23E5
:1042B00023601DB0BDE8104001B070478B23036040
:1042C0004FF0FF30F5E700BF0CB410B51F4B0029CD
:1042D0001C689CB035DB4FF40273ADF814300290CB
:1042E00006901FAB18D001394FF6FF720491079169
:1042F000ADF8162002A91E9A0193204601F030FD68
:10430000421C01DA8B232360029B00221A701CB02E
:10431000BDE8104002B070474FF6FF72049107915C
:10432000ADF8162002A91E9A0193204601F018FD4F
:10433000431C01DA8B2323601CB0BDE8104002B09F
:1043400070478B2323604FF0FF30F5E70800002013
:104350000CB410B59CB01EAB6FF00044CDE9061450
:104360000291084953F8042B059102A90193049482
:1043700001F0F6FC029B00221A701CB0BDE8104050
:1043800002B070470802FFFF0EB410B59DB06FF089
:1043900000411FABCDE906010491094953F8042BF4
:1043A0000290084C0868019302A9059401F0D8FC1A
:1043B000029B00221A701DB0BDE8104003B0704788
:1043C000080000200802FFFF0EB410B59FB021AC1A
:1043D0004FF4017154F8042B0192ADF81C100490B5
:1043E000089000F00DFA059009900B480B490C91CC
:1043F00000234FF6FF7C10931593019A0068ADF8E7
:104400001EC0234604A9039402F008FF1FB0BDE8B4
:10441000104003B0704700BF080000209D44000812
:104420000CB430B59FB022AC4FF4017354F8042B98
:10443000019205460846ADF81C300491089100F041
:10444000DFF90C490C910346059309934FF6FF7170
:10445000002310931593ADF81E10019A039428467B
:10446000234604A902F0DAFE1FB0BDE8304002B0D6
:10447000704700BF9D44000810B50C46B1F90E10FE
:1044800006F01EFC002803DB236D0344236510BDEA
:10449000A38923F48053A38110BD00BF002070477F
:1044A0002DE9F0410C46B1F90C101F46CB0505462D
:1044B00016460BD421F48051A1813B46B4F90E106D
:1044C00032462846BDE8F04103F0B4BFB4F90E10FF
:1044D0000223002205F022FEB4F90C10EAE700BF27
:1044E00010B50C46B1F90E1005F018FEA389421C58
:1044F0000EBF23F4805343F480532065A38110BD85
:10450000B1F90E1003F0E0BF000000000000000051
:10451000000000000000000000000000000000009B
:10452000A2EB0300704700BF02780B78012A28BF76
:104530009A42F5D16DE9044540EA0104CDE90267EC
:104540006FF0000C4FEA447212B380EA010414F0D9
:10455000070F6AD100F0070420F0070004F00305FC
:1045600021F007014FEAC505F0E8042314F0040F19
:10457000F1E804670CFA05F462EA040266EA04064C
:104580000AD063EA0403624667EA0407664603E06A
:10459000F0E80423F1E8046782FA4CF582EA0604A5
:1045A000A4FA8CF46CBB83FA4CF583EA0705A5FAF0
:1045B0008CF595B950E9022351E9026782FA4CF56E
:1045C00082EA0604A4FA8CF483FA4CF583EA070520
:1045D000A5FA8CF52543DBD09CB92DBAB5FA85F444
:1045E00024F0070427FA04F1DDE9026723FA04F353
:1045F00003F0FF0001F0FF01FDE80445A0EB01001E
:10460000704724BAB4FA84F424F0070426FA04F1BB
:10461000DDE9026722FA04F202F0FF0001F0FF0177
:10462000FDE80445A0EB0100704714F0030F3CD1F6
:1046300010F0030428D150F8082B51F8083B82FAF7
:104640004CF582EA0305A5FA8CF55DB950F8042C07
:1046500051F8043C82FA4CF582EA0305A5FA8CF580
:10466000002DE8D02DBAB5FA85F424F0070423FA1A
:1046700004F122FA04F202F0FF0001F0FF01FDE86C
:104680000445A0EB010070474FEAC40420F003008A
:1046900050F8082B21F0030151F8083B0CFA04F400
:1046A00062EA040263EA0403C9E710F003041AD0C3
:1046B000A1EB040120F00300E40750F8042B06D01E
:1046C0000FD28B785FFAA2F4E41A06D12BB1CB7823
:1046D0005FFAB2F4E41A00D11BB920465DF8104B22
:1046E000704701F1040150F8042BCC0721F00301BD
:1046F00051F8043B48D824D222F07F4482FA4CF58A
:1047000094EA1325A5FA8CF50AD165B951F8043B52
:1047100084EA0204B4EB036F0ED150F8042BEBE7EC
:104720004FEA132355E035F07F454DD10878FDE879
:104730000445C0F1000070474FEA126203F0FF0326
:1047400047E002EA1C4482FA4CF594EA1345A5FAC4
:104750008CF50AD165B951F8043B84EA0204B4EB44
:10476000034F0CD150F8042BEBE74FEA134330E032
:1047700015EA1C4528D10B884FEA124229E04FEA7E
:10478000124203EA1C4324E002F0FF0482FA4CF5D3
:1047900094EA1365A5FA8CF50AD165B951F8043B82
:1047A00084EA0204B4EB032F09D150F8042BEBE7A1
:1047B0004FEA13630DE015F0FF0F05D10B684FEAC8
:1047C000122223F07F4304E04FF00000FDE804458F
:1047D000704712BA1BBA82FA4CF482EA0304A4FAB4
:1047E0008CF5B5FA85F402FA04F203FA04F34FEA01
:1047F0001260FDE80445A0EB136070470000000064
:1048000090F800F06DE9024520F007016FF0000C10
:1048100010F0070491F820F040F049804FF00004B8
:104820006FF00700D1E9002391F840F000F1080093
:1048300082FA4CF2A4FA8CF283FA4CF3A2FA8CF3CB
:104840004BBBD1E9022382FA4CF200F10800A4FA32
:104850008CF283FA4CF3A2FA8CF3E3B9D1E9042386
:1048600082FA4CF200F10800A4FA8CF283FA4CF3BD
:10487000A2FA8CF37BB9D1E9062301F1200182FA77
:104880004CF200F10800A4FA8CF283FA4CF3A2FA7D
:104890008CF3002BC6D0002A04BF04301A4612BA8B
:1048A000B2FA82F2FDE8024500EBD2007047D1E98E
:1048B000002304F00305C4F100004FEAC50514F01D
:1048C000040F91F840F00CFA05F562EA05021CBFEE
:1048D00063EA050362464FF00004A9E7A2B330B5CE
:1048E00040EA0104A40784460B462AD09CF8000045
:1048F0000C7884422FD1012A0DD0E64660B11EF813
:10490000010F11F8014F6FEA0E03A042134422D1A8
:104910001CEB0303F2D1002030BD0468194653F8A4
:10492000045BA4F1013EAC4284462EEA040E00F181
:1049300004000BD1043A84461946ECD01EF0803FA7
:10494000E9D1032AE9D8D1E7104670479CF8000066
:104950000C78A042D1D0001B30BD00BF0000000089
:104960002DE9F04F1C462DED048B9D4B1B689FB02D
:10497000002582461846884607921A950893FFF745
:104980003FFF002183460020CDE90401CDF864807B
:104990004246174612F8013B2D2B2FD8DFE813F0C3
:1049A000A4002E002E002E002E002E002E002E0021
:1049B0002E00B400B400B400B400B4002E002E00E9
:1049C0002E002E002E002E002E002E002E002E0077
:1049D0002E002E002E002E002E002E002E002E0067
:1049E000B4002E002E002E002E002E002E002E00D1
:1049F0002E002E002E000E042E0004040022099228
:104A0000302B00F0838000220C922F2B1C4640F2AA
:104A10004D854FF0000938464E464D4612E00130B4
:104A2000082D1990C8BF09EB89090478C6BF03EBAC
:104A30004903A3F13009A2F130062F2C05F101053D
:104A4000234674DD06EB8602392C03EB4202E6DDD9
:104A500008995A46FFF742FF0346002835D1199AB4
:104A600011465A44199211F80B40002D40F0A985C7
:104A7000302C40F06185C2F10101531801321992C6
:104A80001478302CF9D0A4F13102082A00F24383C3
:104A9000A4F1300E199C03F1010B002301252746D8
:104AA0000A9306EB86060EEB46060023621C19925B
:104AB0006478A4F13001092900F2F18201338E46B5
:104AC000002940F0D284199CF0E70023652C0A9558
:104AD0009B469E4601D0452C36D1002D40F0858066
:104AE0000C9A1A4340F08080079B9FED3B8B13B1DB
:104AF000079BC3F80080B0EE480AF0EE680A1FB0CA
:104B0000BDEC048BBDE8F08F199242E77B7803F08F
:104B1000DF03582B00F08D84013719973B78302B39
:104B2000FAD0002B00F0D38001220C926DE7089997
:104B30005A46FFF7D3FE0346002800F0DB800A95B3
:104B40004FF0000B5B46DE4600220D92002D00F078
:104B500098800A9A1346002A08BF2B4630460A93CB
:104B6000FCF760FE0B460246CDE904230D9B102D99
:104B7000A3EB0B032C46A8BF1024092D0C9314DDC6
:104B8000184B03EBC40353E91223FCF7C5FE02469E
:104B9000484690468946FCF745FE02460B4640468D
:104BA0004946FCF703FDCDE904010F2D00F3AB806E
:104BB0000C9B002B00F034840C9B40F38283162B5B
:104BC00040F3F1840C9AC5F12503934280F20485E9
:104BD0000C9B2C1B1C449CE000000000000000000B
:104BE00000B2020820B202080025DDF8648008F156
:104BF0000102199298F801402B2C00F089822D2C8B
:104C000000F01D8200220892A4F13002092A00F26D
:104C10001182302C05D1199A013219921478302C56
:104C2000FAD0A4F13102082A8ED819990D914A1CA4
:104C30001992A4F130004C782F2C09DC00F044BC10
:104C4000013219929CF801402F2CA1F1300006DDB1
:104C500000EB8001392C944604EB4101F0DD0D9905
:104C6000521A082A40F3308444F61F620D92089AC3
:104C7000002A3FF46BAF0D9A52420D92002D7FF443
:104C800068AF0C9A134322D1BEF1000F7FF42CAF12
:104C9000692C00F0318400F35283492C00F02C84FD
:104CA0004E2C7FF421AFB84919A805F0E7F8002889
:104CB0003FF41AAF199B1B78282B00F07185B3487D
:104CC00006F016F8B0EE408AF0EE608A01E09FED43
:104CD000AA8B079A0AB1199B1360099B002B3FF41A
:104CE0000AAF18EE901A18EE102A01F1004343ECB7
:104CF000182B00E7199A0A9502EB0B01199112F88B
:104D00000B409B46D5E60C9B2C1B1C44002C40F30F
:104D10001B8314F00F000AD09D4901EBC001DDE9AF
:104D20000423D1E90001FCF7F7FDCDE9040134F0DB
:104D30000F0340F07082002308930A9A00962B46D6
:104D40003946504605F0F0FA1190002800F06B83C8
:104D50000D9BABEB03000C9B002BB4BF0246002263
:104D60004FF0000823EAE3730D921093C346119CA1
:104D70005046616805F054FA8146002800F04781EA
:104D800022699DED048B0232920004F10C010C307B
:104D9000FEF788FDB0EE480AF0EE680A1CAA1BA9CF
:104DA000504605F077FE1A90002800F01D81012181
:104DB000504605F063FB8346002800F028811B9BCA
:104DC000002BC0F217810D9A109D9E18089A1C9C0A
:104DD0009B1A23446F4A013B9342C4F1360480F28C
:104DE000B080D21A1F2AA4EB020400F31C81012315
:104DF00093400A930027089B25443444A6421D444F
:104E00003346A8BF2346AB42A8BF2B46002B02DD8A
:104E1000E41AED1AF61A0D9B002B00F3C580002C46
:104E200000F3D9800C9B002B00F3E880002D00F3E9
:104E3000F080002E08DD59463246504605F05AFCF7
:104E40008346002800F0E3801A994A46504605F050
:104E5000EBFC8046002800F0DA800023C268C360C3
:104E600059460E9205F0BEFC0028C0F2758400F091
:104E7000E5835946404605F075FE55EC104B10EEA3
:104E8000100A00224FF080432946FCF7C1FF00289A
:104E90005BD00E9B002B00F0DD80059B0F933E4BFB
:104EA0003D4D0022CDE90A2300243C4F0F9A3C4B94
:104EB00002EA07069E4200F0F880089B8BB1B6F12B
:104EC000D46F0ED82EA3D3E9002320462946FCF741
:104ED0009FFF002840F087810B9B03F1D6639B1B4B
:104EE0000B93DDE90A01B0EE480AF0EE680ACDE95D
:104EF000040105F03FFDDDE9040153EC102BFCF744
:104F00000BFD53EC182BFCF751FBCDE904010A9182
:104F1000089B2BB9214B0A9A13409E4200F0048152
:104F20001A99504605F0A2F94946504605F09EF9F7
:104F30005946504605F09AF94146504605F096F913
:104F400015E7012300270A9355E7164B204629460B
:104F50000022FCF7E1FC0E9B04460D46002B76D1A7
:104F600001F1004312901393059B0F93DDE9122387
:104F7000CDE90A2399E700BF00000000000000000F
:104F80000000C0FFFFFFDF4174EA020878C6020894
:104F900020B2020802FCFFFF0000F03F0000F07F9B
:104FA0000000E07F0000E03F59461A46504605F0F9
:104FB00041FB834658B301461A9A504605F08CFAD5
:104FC00028B30E901A99504605F050F90E9B1A938B
:104FD000002C7FF727AF1A992246504605F08AFB2E
:104FE0001A9000287FF41EAF22239FEDBF8BCAF8D2
:104FF0000030C4E0109A0D9ED51AE7E64946109A93
:10500000504605F017FB814600287FF40FAF1A9831
:10501000EAE749462A46504605F06CFB81460028DF
:105020007FF407AFF3E7B84FFF1A012303FA07F73E
:105030000A93E0E60022CDF864800D9286E5012215
:10504000089208F10202199298F80240DCE5CDE9D5
:10505000124589E7DDE90412002940F0B280C2F36D
:1050600013030F92002B40F0B280A84B0022204681
:105070002946FCF7C3FE002840F0A782A44B204637
:1050800029460022FCF748FC01F1004304460D4686
:1050900016901793DDE91623CDE90A2305E7652C61
:1050A0004FF0010E3FF4A1AD15E5A2F15473059345
:1050B0009DED047BDDE90A01B0EE470AF0EE670AD8
:1050C000B0EE479AF0EE679ACDE9040105F052FC84
:1050D000DDE9040153EC102BFCF71EFC53EC192BFB
:1050E000FCF764FA8B4B0F409F42CDE9040175D960
:1050F00018EE902A03F154739A4203D118EE103A35
:10510000013384D0844A4FF0FF33CDE9043207E7FE
:105110000022089295E7652C00F00A81452C00F0EA
:1051200007814FF0010EACE52046294609F018FC36
:10513000FCF7C4FB0B46024629462046FCF734FA2E
:10514000049C0E9F27430A9CC4F3130657EA0603E8
:1051500004460D4600F0AC8065A3D3E90023FCF7BC
:105160004DFE48B964A3D3E9002320462946FCF745
:1051700063FE00283FF4D4AE9DED048B1A980146DF
:10518000504605F073F84946504605F06FF8594609
:10519000504605F06BF81199504605F067F8414606
:1051A000504605F063F894E5012309937A1C19929F
:1051B0007B78002B3FF498AC174621E40023099339
:1051C000F4E7DDE90412012900F086810F92534BC8
:1051D0004E4D0022CDE90A23002466E601F1547306
:1051E0000A93059394E629462046FCF76DFE0128B4
:1051F00038BF0120FCF716FB0E9B04460D46002B22
:1052000040F0778101F1004314901593DDE91423F8
:10521000CDE90A2360E6B3F59A7F00F304811C11FF
:10522000102B3F4B089340F3D7829846DDE90423C7
:105230004FF0000CE14614F0010F104619464FEAFA
:10524000640409F1010907D0D8E90023FCF764FBE5
:105250004FF0010C02460B46012C08F10808EAD178
:10526000BCF1000F01D0CDE90423089B03EBC90971
:10527000059BA3F154730593DDE90423D9E90001EB
:10528000FCF74AFB274BCDE904010B400A462649AF
:105290008B4200F2C880A1F580118B4240F23B8224
:1052A0001D4A4FF0FF33CDE904320023089344E553
:1052B00013A3D3E90023FCF7A1FD00283FF430AE8F
:1052C0005AE71633FFF61FAD0D9BABEB030A174BE6
:1052D00003EBCA03DDE90401D3E90023FCF746FC34
:1052E00041EC180BF5E400BF000000000000F07F67
:1052F0009535A094FFFFDF3F35E5AF350000E03F77
:105300009535A094FFFFCF3FE2FBFFFF0000F03F89
:105310000000E03FFFFF9F7CFFFFEF7F0000F0BF3A
:1053200010B302080000F07F0000A07C20B2020849
:1053300000220A9293464FF0010EFFF7D1BB6E2C6C
:105340003FF4B1ACFFF7D0BB3FF4F5AC644214F0CE
:105350000F020AD0B24B03EBC203DDE90401D3E92B
:105360000023FCF703FCCDE9040124113FF4E3AC76
:105370001F2C3EDC14F0100318BF6A230893DDE9EC
:105380000423DFF8B4824FF0000C14F0010F104634
:10539000194607D0D8E90023FCF7BEFA4FF0010CFC
:1053A00002460B46641008F10808EED1BCF1000F6C
:1053B00001D0CDE90423089B93B1DDE90401C1F3D9
:1053C0000A52C2F16B03002B0ADD1F2B40F330821F
:1053D0000020342B049040F336824FF05C73059329
:1053E000DDE9040100220023FCF7FEFC00283FF465
:1053F000A4AC22239FED848BCAF8003069E41C9B87
:1054000004931B9B03F233421D9B23F4801343EA56
:1054100002530593290742BF059B43F000430593C0
:105420009DED048B55E422239FED798BCAF8003063
:105430004FE4099B01931AAB02940093794A1BAB8A
:1054400019A9504604F02EFA10F0070405463FF45F
:105450003EAC062C73D1079B9FED6B8B0137002B65
:105460003FF449AB1F60FFF746BB6A1C012B199C38
:105470009B44104615D02B4403F1FF3C03E046004B
:1054800094450DD001322B46082B154606EB8600BD
:10549000F5D9102ADCBF09EB89094FEA4909EFE782
:1054A000981C082D3EDC0546FFF7FBBA08995A46C2
:1054B0003846FFF713FA00286BD000231D460A93E5
:1054C00099461E46FFF73CBB44F61F629042A8BFB8
:1054D00010460D90FFF7CBBBDDE904120F92002AB6
:1054E0007FF475AE22239FED488B1A98CAF80030DE
:1054F00045E6CDE9144589E64B4919A804F0BEFC00
:1055000000283FF4F1AA199B4849013B19A81993B7
:1055100004F0B4FC10B9199B013319939FED3C8B37
:10552000FFF7D7BB1028DCBF09EB890901EB49095C
:1055300005460023FFF7BABA0023FFF7A4BA1A9A68
:105540003AB135211CA805F05BFB1A99504604F0CE
:105550008DFE013C042C3FF65DAF01A353F824F00F
:10556000FF53000889550008835500087555000849
:10557000FF5300084FF0FF336FF00040CDE90430D7
:1055800048E72B4B059345E71C9B04931D9B059314
:1055900040E7199A13465A44199213F80B400646ED
:1055A0008146FFF765BA0C981D4901EBC001DDE9A2
:1055B0000423D1E90001FCF7AFF941EC180BFFF728
:1055C00088BB0A958346FFF774BA9FED137B194D8C
:1055D0008DED167B00245DE5114CC5F10F0504EB44
:1055E000C501DDE90423D1E90001FCF795F90C9B25
:1055F0005D1B04EBC504D4E90023FCF78DF941ECF5
:10560000180BFFF766BB00BF0000000000000000A1
:10561000000000000000F07F000000000000E0BF7C
:1056200020B2020868AF020868EA02086CEA0208C1
:105630000000F07F0000E03F90AF02080E9B002BBF
:1056400070D0DDE90445954BC5F3130199422A4614
:105650003FD0002F00F0B880DDE904231F421C4634
:1056600023D0B0EE480AF0EE680A0E9B002B00F043
:10567000B68005F07FF9089B51EC100B6BB1C4F3B9
:105680000A54C4F16B04002C07DD240504F17F5398
:10569000002203F54013FCF73FF902460B4651EC9C
:1056A000180BFBF783FF41EC180B089B7BB151EC07
:1056B000180B7B4B0022FCF72FF941EC180B18EE6E
:1056C000902A0346134304BF2223CAF800301A98D5
:1056D00055E5089B0499002B00F0B280714B2B40DC
:1056E000B3F1D46F00F2AC801B0DC3F16B034FF02C
:1056F000FF3000FA03F39942ABD16B4B9A4200F0B2
:10570000C780684B134003F580130593002304936F
:105710009DED048BC9E702F15473059300230893B0
:10572000FFF70BBBDDE90412C2F313030B4314466E
:105730008FD1089B002B40F0A0805A4B2340A3F54B
:1057400080136FEA13536FEA035305934FF0FF334F
:1057500004939DED048BA8E7DDE904010E9B034350
:10576000A3D1C1F313030C46002B9ED121F00043BB
:105770001B0D1B05B3F1D66F97D9D8F814301BB9A0
:10578000D8F81030012B90DD41460122504604F03C
:10579000B1FF5946804605F025F8002885DDC8E7A9
:1057A000424919A81CAA04F085FB05287FF487AAA2
:1057B0001D9B43F0FF4343F4E00305931C9B0493BC
:1057C0009DED048BFFF785BADDE904010A9B0342D6
:1057D0003FF46BAF0C4644E74FF0000945E505F098
:1057E000C9F8089953EC102BB9B3C4F30A54C4F1A7
:1057F0006B04002C0CDD2405194604F17F530E9A2E
:1058000003F5401310EE100AFCF786F802460B462B
:1058100051EC180BFBF7C8FE02460B4643EC182B65
:1058200000220023FCF7E0FA00283FF440AF59E6DD
:105830004FF0FF3202FA03F3049A1A400492CFE5C4
:105840004FF0FF3357E74FF0FF33C2F14B0203FA3B
:1058500002F202EA01030593C2E551EC180BFBF7D3
:10586000A3FE02460B4643EC182B00220023FCF754
:10587000BBFA00283FF42BAF34E60A4B2340B3F1C8
:10588000D66F3FF75CAFB3F15C7F3FF710AF29E60F
:1058900001317FF436AFFFF7BABB00BFFFFF0F0047
:1058A000000050390000F07FFFFFEF7F7CAF02085F
:1058B000014BFFF755B800BF4C08002010B4054C51
:1058C0008446134620685DF8044B0A466146FFF79C
:1058D00047B800BF0800002010B4054C054B8446B3
:1058E0000A4620685DF8044B6146FFF739B800BFEF
:1058F000080000204C0800202DE9F041DFF8A880C6
:10590000044613462DED028B0A46D8F800002146C6
:10591000FFF726F855EC104B10EE102A10EE100A87
:105920002B462946FCF792FA50BB20462946FCF745
:10593000EBFA08EE100ADFED197AB0EEC87AB4EE91
:10594000677AF1EE10FA15DD25F00047144B4FF0A1
:10595000FF3220463946FCF779FA38B9104B4FF040
:10596000FF3220463946FCF753FA18B1D8F8003018
:1059700022221A60B0EE480ABDEC028BBDE8F0812D
:10598000002D084804DAFBF793FDB1EE408AF1E7F9
:10599000BDEC028BBDE8F041FBF78ABDFFFF7F7FC6
:1059A000FFFFEF7F78C60208080000202DE9F041D4
:1059B000DFF8AC80264B04460A462DED028B2146CB
:1059C000D8F80000FEF7CCFF55EC104B10EE102A73
:1059D00010EE100A2B462946FCF738FA50BB204639
:1059E0002946FCF791FA08EE100ADFED1A7AB0EEBC
:1059F000C87AB4EE677AF1EE10FA15DD25F00047AB
:105A0000154B4FF0FF3220463946FCF71FFA38B9E4
:105A1000114B4FF0FF3220463946FCF7F9F918B127
:105A2000D8F8003022221A60B0EE480ABDEC028B92
:105A3000BDE8F081002D094804DAFBF739FDB1EE2D
:105A4000408AF1E7BDEC028BBDE8F041FBF730BDC9
:105A50004C080020FFFF7F7FFFFFEF7F78C6020822
:105A6000080000202DE9F04F814645488E467546D6
:105A70001EF801CB10F80C4014F00804F7D1BCF16B
:105A80002D0FE34654D0BCF12B0F08BF9EF800B099
:105A90006FF0004808BF05F1020E1BB1102B4FD06C
:105AA0001F4604E0BBF1300F55D00A231F460025E6
:105AB000B8FBF7F6284607FB168A07E0864215D39F
:105AC00029D007FB00C001251EF801BBABF1300C4B
:105AD000BCF1090F06D9ABF1410CBCF1190F08D884
:105AE000ABF1370C63450DDD002DE7DA4FF0FF35E4
:105AF000EAE7ABF1610CBCF1190F03D8ABF1570C1D
:105B00006345F1DC002D0BDB04B140420AB195BBCB
